:020000040000FA
:100000006804002011030000190300001B03000016
:100010001D0300001F03000021030000000000007A
:1000200000000000000000000000000023030000AA
:100030002503000000000000270300002903000042
:100040002B0300002D0300002F03000031030000EC
:1000500033030000350300003703000039030000BC
:100060003B0300003D0300003F030000410300008C
:10007000430300004503000047030000490300005C
:100080004B0300004D0300004F030000510300002C
:1000900053030000550300005703000059030000FC
:1000A0005B0300005D0300005F03000061030000CC
:1000B000630300006503000067030000690300009C
:1000C0006B0300006D0300006F030000710300006C
:1000D000730300007503000077030000790300003C
:1000E0007B0300007D030000000000007F03000090
:1000F00081030000830300008503000087030000E4
:10010000890300008B0300008D0300008F030000B3
:1001100000000000000000009103000093030000B5
:100120009503000097030000990300009B03000063
:100130009D0300009F030000A1030000A303000033
:1001400000000000000000000000000000000000AF
:10015000A5030000A7030000A9030000AB030000F3
:10016000000000000000000000000000000000008F
:10017000000000000000000000000000000000007F
:10018000000000000000000000000000000000006F
:10019000000000000000000000000000000000005F
:1001A000000000000000000000000000000000004F
:1001B000AD030000AF030000B1030000B303000073
:1001C000B5030000B7030000B9030000BB03000043
:1001D000BD030000BF030000C1030000C303000013
:1001E000C5030000C7030000C903000000000000B1
:1001F00000000000CB030000CD030000CF0300008F
:10020000D1030000D3030000000000000000000044
:10021000D5030000D7030000D9030000DB03000072
:10022000DD030000DF030000E1030000E303000042
:10023000E5030000E7030000E9030000EB03000012
:10024000ED030000EF030000F1030000F3030000E2
:10025000F5030000F7030000F9030000FB030000B2
:10026000FD030000FF0300000104000000F002F89D
:1002700000F03EF80AA090E8000C82448344AAF102
:100280000107DA4501D100F033F8AFF2090EBAE800
:100290000F0013F0010F18BFFB1A43F001031847BA
:1002A0002416000044160000103A24BF78C878C114
:1002B000FAD8520724BF30C830C144BF04680C606C
:1002C000704700000023002400250026103A28BFB4
:1002D00078C1FBD8520728BF30C148BF0B607047B8
:1002E0001FB59DE8030000F0A9FB1FBD10B510BDB0
:1002F00000F000FC1146FFF7F3FF00F08AF900F070
:100300001EFC03B4FFF7F2FF03BC00F04BFC00003F
:100310003F4880473F480047FEE7FEE7FEE7FEE72D
:10032000FEE7FEE7FEE7FEE7FEE7FEE7FEE7FEE7A5
:10033000FEE7FEE7FEE7FEE7FEE7FEE7FEE7FEE795
:10034000FEE7FEE7FEE7FEE7FEE7FEE7FEE7FEE785
:10035000FEE7FEE7FEE7FEE7FEE7FEE7FEE7FEE775
:10036000FEE7FEE7FEE7FEE7FEE7FEE7FEE7FEE765
:10037000FEE7FEE7FEE7FEE7FEE7FEE7FEE7FEE755
:10038000FEE7FEE7FEE7FEE7FEE7FEE7FEE7FEE745
:10039000FEE7FEE7FEE7FEE7FEE7FEE7FEE7FEE735
:1003A000FEE7FEE7FEE7FEE7FEE7FEE7FEE7FEE725
:1003B000FEE7FEE7FEE7FEE7FEE7FEE7FEE7FEE715
:1003C000FEE7FEE7FEE7FEE7FEE7FEE7FEE7FEE705
:1003D000FEE7FEE7FEE7FEE7FEE7FEE7FEE7FEE7F5
:1003E000FEE7FEE7FEE7FEE7FEE7FEE7FEE7FEE7E5
:1003F000FEE7FEE7FEE7FEE7FEE7FEE7FEE7FEE7D5
:10040000FEE7000004480549054A064B7047000016
:10041000950500006D0200006800002068040020BF
:10042000680200206802002002465B4831B10129C1
:100430004CD002294CD003294FD14BE0172A43D28C
:10044000DFE802F00C0E111316181B1D20232527C0
:10045000292B2E30333537393B3D3F004F4833E0B1
:100460004FF4E11030E04E482EE04FF416102BE030
:100470004C4829E04FF4611026E04B4824E04FF44B
:100480007A1021E04FF496001EE048481CE04848EE
:100490001AE0484818E0484816E04FF4E10013E03D
:1004A000464811E04FF4FA000EE045480CE03A48A7
:1004B0000AE0444808E0444806E0444804E0444870
:1004C00002E04FF47A0000BF00BF06E0324804E0CB
:1004D000404802E047F2305000BF00BF704770B59F
:1004E0003D48046E056F15F0004F29D015F4006FDC
:1004F00008D0C5F30211C4F38310FFF795FF374905
:10050000086002E036483549086014F4800F40D096
:1005100015F4006F09D031480168C5F3C550401C7F
:10052000B1FBF0F02D49086033E02C480168C5F3B9
:10053000C550401CB1FBF0F040082849086028E095
:1005400014F4006F08D0C4F30111C4F38410FFF752
:100550006BFF2249086002E021482049086014F43A
:10056000800F16D014F4006F09D01C480168C4F342
:10057000C350401CB1FBF0F01849086009E017486F
:100580000168C4F3C350401CB1FBF0F040081349AC
:10059000086070BD70470000001BB70040420F00AC
:1005A00080841E00999E360000093D00404B4C009F
:1005B00000204E00808D5B0000C05D0000127A00BC
:1005C000809698000080BB00C0E8CE00647ADA0014
:1005D0000024F400C0C62D0000E00F400000002001
:1005E0000084D71708B50020009002203549086024
:1005F0003548D0F8080100903448354908604FF07C
:100600001F0001F1040108603249086032490860A6
:1006100008BDFFF7BFFFFFF7E5FF4FF4165000F0EE
:1006200075F800BF4CE00A21204600F020F904468E
:100630001CB90220294908603FE0214628A000F0AB
:100640009DF938B92748006880F008002649C1F8AC
:10065000FC0332E0214625A000F090F938B921488A
:10066000006880F010002049C1F8FC0325E0214615
:1006700020A000F083F938B91A48006880F0010022
:100680001949C1F8FC0318E021461CA000F076F9D6
:1006900038B91448006880F002001349C1F8FC031F
:1006A0000BE0214617A000F069F930B90D48006849
:1006B00080F004000C49C1F8FC03204600F037F933
:1006C000B1E7000008E10F4000E00F404B434F4C02
:1006D00020550040005400401C550040FC5302408F
:1006E00046414E00FC530040005000404C494748F2
:1006F000540000004C454431000000004C45443299
:10070000000000004C454433000000002DE9F14F8B
:1007100082B0029800F0CDFC07460022614B00F049
:10072000DBFC05462A460B4600205F4900F03AFBF9
:10073000824600F05DFA0446204600F043FF814601
:10074000484600F05BFF2146009001F03BF88346ED
:100750004FF0854100F06AFF824600F0A5FE074693
:100760000022524B00F076FA054600F073FC01902F
:100770004F48006840F001004E49C1F804010846A6
:10078000D0F8080140F00100C1F808014A480068AB
:1007900040F00100484908604848006840F0010006
:1007A000464908604648006B20F001004449086350
:1007B0000846C0F82490019888620846C06A40F054
:1007C0007000C8620846006B40F0010008633D48B5
:1007D000006840F003003B4908603B48006840F077
:1007E0000300394908603948006820F0FF0000F133
:1007F000110036490860A1F10400006820F00300F0
:10080000A1F104010860BDE8FE8F08B5002000904A
:1008100003E02B480068C0B200902948806910F0BE
:10082000100FF6D008BD00B50146FFF7EEFF00BF80
:100830002348806910F0200FFAD12148016000BDE3
:1008400000B50246FFF7E1FF03E01078FFF7EBFF8A
:10085000521C10780028F8D100BD00BF18488069EC
:1008600010F0100FFAD116480068C0B2704770B58A
:1008700005460E46304600F02BF80546002403E0FE
:10088000FFF7EBFF2855641CB44203DA601E285CB6
:100890002E28F5D10021601E2954FFF7B6FF284607
:1008A00070BD00000000304080846E410000E03FD9
:1008B00004E10F4000E00F4018E60F4008E60F404B
:1008C00000C00040204400401C4500402C45004032
:1008D00070B5064600F096F8056806F10B0020F0AA
:1008E0000704B4429CBF002070BD2B466A68BAB1B1
:1008F0001068A04210D304F1080188423CBF506840
:10090000586007D35168101941601168091B0160D4
:1009100058601460101D70BD13465268002AE7D15C
:100920002146284600F076F80028DED170BD70B56B
:100930000446051F00F066F80068002C14BF4468E8
:1009400070BD002C18BFAC423CBF20466468F8D391
:1009500001680A18AA4218BF456003D12A680546F3
:100960001144016028684119A1421CBF6C6070BD30
:100970006168696021680844286070BD4FF0013CDF
:1009800050F8042B51F8043B9A4221D1A2EB0C03FE
:10099000934313EACC1317D150F8042B51F8043BBE
:1009A0009A4215D1A2EB0C03934313EACC130BD15B
:1009B00050F8042B51F8043B9A4209D1A2EB0C03E6
:1009C000934313EACC13DBD04FF00000704700BF15
:1009D000D01A01BAB1FA81F101F0180122FA01F03E
:1009E000CB40C1F12001DBB2C0B2C01A2CFA01F336
:1009F000D11A914311EAC311E6D17047704770478D
:100A000070470000004870470C0000207047704796
:100A10007047704738B504460A4600206946AFF370
:100A20000080002808BF38BD02460099204600F02B
:100A30003FF8012038BD012000F054B8F8B5AFF3FD
:100A40000080054600200C46102000BF0646A8196D
:100A5000A0420DD9324669460020AFF3008007005E
:100A600008BF00F03FF80098A04218BF0546C4191F
:100A7000FFF7C8FF05600746F01D20F00700461984
:100A8000284600F00AF8B44208BFF8BDA21B314660
:100A90003868BDE8F84000F00BB800210160C0E9FB
:100AA0000110704710207047004870470400002074
:100AB000034640688C46002818BF88423CBF034666
:100AC0004068F8D318681844884207D00CF1030036
:100AD00020F00700001D411A521A0146081D0A6045
:100AE000FFF725BF10B500F035F8BDE8104000F065
:100AF0002CB870477546FFF7D7FFAE46050069462C
:100B0000534620F00700854618B020B5FFF77AFC61
:100B1000BDE820404FF000064FF000074FF00008FE
:100B20004FF0000B21F00701AC46ACE8C009ACE87F
:100B3000C009ACE8C009ACE8C0098D46704704465E
:100B4000AFF300802046FFF7DCFB002801D000F067
:100B500029B8704710B5012805D0002103A000F086
:100B600027F8012010BD09A1F8E7000053494752BA
:100B7000544D454D3A204F7574206F66206865616D
:100B800070206D656D6F7279000000003A20486535
:100B90006170206D656D6F727920636F7272757010
:100BA0007465640001491820ABBEFEE72600020010
:100BB00070B505460C460A2000E06D1C00F011F8E7
:100BC00035B128780028F8D102E0641C00F009F85B
:100BD00014B120780028F8D1BDE870400A20AFF3A6
:100BE000008008B569468DF800000320ABBE08BD43
:100BF00021F00042A2F16052B2F5801F01F00043E3
:100C000028BFD2F17F6C0BD95FEA001C43EAC20215
:100C100042EB507018BF704728BF20F001007047AA
:100C2000B2F5801FBCBF184670474FEA410C1CF557
:100C3000001F02D2084600F0C0BD70B500F0F6FA01
:100C400000000089FFF7F6BF4FF00040A0F58000DC
:100C50007047000010B591EA030F48BF83F00043CE
:100C600000F14083841A71EB030C05D2121943EB97
:100C70000C03001B61EB0C01DFF824E14FEA115477
:100C8000A4EB135C1EEA430F18BF9EEA445F73D0C7
:100C900023EA0E03DCF1200E21EA045143F4801311
:100CA00032D322FA0CFE10EB0E0023FA0CFE41EBBD
:100CB0000E01CCF1200E03FA0EFE10EB0E0051F1E6
:100CC0000001B1F5801FCCF1200E32D201EB0451AE
:100CD00012FA0EF2BDE8104058BF7047401C38BFF2
:100CE0005FEA420218BF7047002814BF20F00100DD
:100CF00041F100014FEA410313F5001F38BF70476F
:100D0000A1F1C04100F0E0BA012A43EB0302ACF1CB
:100D1000200CDCF11F0E32BF4FF0000E23FA0CF353
:100D200010EB030041EB0451B4EB115FD0D0A1EB09
:100D3000045101F5801149085FEA300001EB0451CC
:100D40000ED350F1000038BF12FA0EFE08D1BDE8F4
:100D50001040C9E7401C38BF5FEA4202CAD1C3E76E
:100D6000BDE810404FEA410313F5001F38BF70473C
:100D7000A1F1C04100F0A8BA9EEA445F08D011EA90
:100D80005E0FBDE8104004BF01F000410020704735
:100D9000BDE8104070B500F049FA00BF64FBBE3EEC
:100DA0000000E0FF2DE9C04130B4DFF8A0C23CEA0A
:100DB000111418BF3CEA131400F0EC8081EA03051B
:100DC0001CEA111444EAD57418BF1CEA131500F08C
:100DD000C780A4EB05044FF0004545EAC12145EA70
:100DE000C32341EA505143EA525304F17F749942BC
:100DF00004F500344FEAC0204FEAC22208BF9042F7
:100E000000F09C804FEA13650FF24016765D4FEAC2
:100E1000134506FB05F7C7F1807706FB07F74FEA96
:100E2000D737A7FB03687642C8F58038A7FB06CE04
:100E300038BFA8F1010807FB08E64FF0000EA6FB3B
:100E4000028CE6FB03CEDCF1000CCEF1004E38BF85
:100E5000AEF1010EA6FB0C584FF000074FF0000555
:100E6000E6FB0E87A1FB08C6A0FB07CE16EB0E061D
:100E700045F10005E1FB076515F1E04E7EBFA4F5E5
:100E800080345FEA46066D4116F1800745F10005A2
:100E90004FEA17274FEA066647EA0567A6F1DE46DE
:100EA000B6F1805F4FEA15251FD9384624F0010CB2
:100EB00005EBC471BCF1FE6F01EB0C1102D8F0BC64
:100EC000BDE8008124425CBF01F5801E9EEAC47F1C
:100ED00002D4F0BCBDE80081244238D4F0BCA1F1BA
:100EE000C041BDE8004100F0EFB94FEAD22242EA2A
:100EF00043524FEAD323A7FB02864FEAD02040EAB1
:100F0000415007FB03661EEA0E0F4FEAD12105FB95
:100F1000026658BFA6EB0056B6EB00564FEA520EDB
:100F20004EEAC37E18EB0E0E56EB530EBDD518EBF2
:100F300002085E417F1C55F10005B6E74FF48015AD
:100F40004FF000074FF000064FF00008ADE7F0BC8F
:100F50004FF0000001F1C04101F00041BDE8008107
:100F600011EA0C1F0CEA131500D00CE013EA0C1F59
:100F700000F025804FF00000F0BC81EA030101F091
:100F80000041BDE80081F0BCBDE8004181EA0301F9
:100F900000F09AB9F0BCBDE8004170B500F046F928
:100FA000097EFC3E00F007B881EA03014FF0000023
:100FB00001F00041704781EA030100F085B9F0BCFF
:100FC000BDE800414FF0000021497047FFFDFBF9EB
:100FD000F7F5F4F2F0EEEDEBE9E8E6E4E3E1E0DE6C
:100FE000DDDBDAD8D7D5D4D3D1D0CFCDCCCBCAC8DE
:100FF000C7C6C5C4C2C1C0BFBEBDBCBBBAB9B8B705
:10100000B6B5B4B3B2B1B0AFAEADACABAAA9A8A8F7
:10101000A7A6A5A4A3A3A2A1A09F9F9E9D9C9C9BC5
:101020009A99999897979695959493939291919070
:101030008F8F8E8E8D8C8C8B8B8A89898888878701
:101040008685858484838382828181800000FF0776
:101050000000F87F4FEA41034FEA5353A3F5806342
:10106000D3F11E03C8BFD3F1210C0CDD4FF00042B9
:1010700042EAC12242EA505232FA03FC8CEAE17C95
:10108000ACEBE1707047102BC4BF0020704703F534
:10109000787CBCF1FF3F04D06FF0004282EA21006F
:1010A000704770B500F0C2F8499224800020704764
:1010B000F2E7B0FA80F310FA03F10AD0C3F11D038E
:1010C00003F580634FEA41504FEA035202EBD1210E
:1010D00070474FF000007047DFF848C170B51CEA58
:1010E000111E1EBF1CEA13159EEA0C0F95EA0C0F89
:1010F00000F06F8081EA030423EA4C134EEAD47EA9
:1011000021EA4C1141F4801143F48013AE44A1FB59
:10111000024CA0FB0365AEF17F7E361955EB0C0542
:10112000A1FB034C4CF10003A0FB021C16EB0C06C8
:10113000654153F10003094218BF46F0010613F45C
:10114000007F0BD14FEA03314FEA0530340341EA07
:10115000155140EA16506FF003020AE04FEAC3212E
:101160004FEAC520F40241EA555140EA56506FF06B
:10117000020202EB2E4201EB025585EACE710AD043
:101180005FEA440C18BF24F0004450F1000041F124
:10119000000120EAD47040F2FE7C624500D270BDAE
:1011A000A84214BF4FF080444FF04044002E08BFC7
:1011B0000024BEF1806FA8BFA1F1C041BDE870401E
:1011C00080F282804FF0000001F1C04101F0004147
:1011D00070479EEA0C0F0CEA131518BF95EA0C0F26
:1011E00006D04FF0000081EA030E0EF0004170BD02
:1011F00000F01CF88900013E00F007B800F009B8C3
:101200004FEA430C5FEA5C5C08D081EA030100F01E
:101210005BB84FEA410C5FEA5C5CF6D14FF000002E
:10122000014970470000FF070000F87F0EF1020E31
:101230002EF0030E5EF8046B364205D4012A43EB10
:10124000030515F5001F12D8012841EB010C1CF510
:10125000001F0CD80ED14FEAD17C15F5001F0CEB06
:101260004C0C0CF1020C08BF4CEBD37C04E04FF0AB
:10127000080C01E04FEAD37C0CEB4C0526FA05F68E
:1012800006F00706B6F1040C06D20EEB860CBDE89C
:1012900070404CF0010C6047DFE80CF0090B0202D3
:1012A0004FF000414FF00000A1F5002170BD19463C
:1012B0001046012851EB010418BFD4F5001484BF77
:1012C000002001F0004170BD0808A0F500114FEAB0
:1012D0003101704710B591EA030F48BF83F0004316
:1012E0003FF5C0AC841A71EB030C07D212198CF0D5
:1012F000004C43EB0C03001B61EB0C01DFF8A4E195
:101300004FEA1154A4EB135C1EEA430F18BF9EEA88
:10131000445F00F0B08023EA6E03524221EA045198
:10132000C3EB6E0338BF5B1EDCF1200E25D322FA1F
:101330000CFE10EB0E0043FA0CFE41EB0E01CCF15B
:10134000200E03FA0EFE10EB0E0051F10001CCF15D
:10135000200E29D412FA0EF201EB0451BDE8104020
:1013600058BF7047401C1CBFB2F1004F70470028A7
:101370000CBF491C20F00100704712EB020E43EB3A
:10138000030218BF4FF0010E4EEA4202ACF1200CEE
:10139000DCF11E0E54D943FA0CFE10EB0E0051F195
:1013A000FF31CCF11E0ED5D50EF1010E12FA0EFE54
:1013B000404141EB010101EB445C5FEA5C5C10D908
:1013C00010EBDE7001EB045138BFBEF1004FBDE8F9
:1013D000104018BF704700280CBF491C20F00100C6
:1013E000704730D24FEAD42C11F5001124F4006478
:1013F0001BD0B1FA81F20B3AA41AA41ED2F1200339
:10140000914030FA03F31943904001EBCC71002C6A
:1014100001EB0451BDE81040A8BF704701F1C04185
:101420004FF0000001F000417047B0FA80F310FA6D
:1014300003F100D110BDE41A173C4805C90AE4E7DE
:1014400001EB045110BD491001EB0451BDE81040FF
:101450004FEA300002E04FF0000170474A0008BF39
:101460000042F8D0B2F5001F28BF704701F00041DC
:101470004FF0000070479EEA445F07D011EA5E0F0C
:10148000BDE8104004BF002100207047BDE81040B7
:1014900070B5FFF7CBFE00BF40DFF63E83F00041A2
:1014A000104670470000E0FF43004FEAD30C4FEABC
:1014B0003C0C43401FBF40070CF1605113F0FE4F3E
:1014C00070471CF0006F03D100200CF00041704702
:1014D0000CF0004343EA507010B540EACC0000F035
:1014E00026F900BF000000924FEA0001FFF7ECBEB2
:1014F0004FF000414FF00000A1F5002170470000BF
:1015000090EA010F48BF81F0004100F16C81421A5E
:101510003CBF801A89184FEAD0524FF07F4C1CEA2A
:10152000410FA2EBD15318BF9CEA026F00F03B8041
:101530004FF0004C4CEA00204CEA012121FA03FC58
:1015400010EB0C0C1ED202F1FF325FEA1C2040EBC4
:10155000C25038BF70471CF07F0F4FEA400C18BFD5
:10156000BCF17F4F38BF7047C3F12003994008BFDB
:1015700020F00100BCF17F4F38BF7047A0F1C040A0
:1015800000F01BB94FEA3C00000A40EBC25028BFF4
:101590001CF0FF0F4FEA400CE6D018BFBCF17F4FA4
:1015A00038BF7047EAE79CEA026F05D010EA5C0F8B
:1015B00008BF00F00040704710B500F0B8F800BF59
:1015C00064FBBE3E41000B0ED3F19E0208D950F4DD
:1015D00000034FEA032323FA02F048BF404270475A
:1015E00010B500F0A4F800BF499224800020704795
:1015F0006FF0004282EA20007047000010F00041C6
:1016000048BF4042B0FA80F310FA03F2C3F19D03E1
:101610000BD051EAC35101EB1220530638BF70477B
:1016200000F1010008BF20F0010070474FF47F0C6B
:101630001CEAD0121EBF1CEAD11392EA0C0F93EAE7
:101640000C0F00F0478090EA010F48BF42F480720F
:101650004FF0004C4CEA00204CEA012102EB03025F
:10166000A0FB0113A2F50002002918BF43F00103FB
:101670005B0028BF4FEA330342EB22425FEA132CA0
:101680004CEBC2502EBFBCEB436FB2F57C0F7047E2
:101690004FEA036CBCF1004F08BF20F00100B2F527
:1016A0007C0F38BF70470BD582F0FF0212F5803FE8
:1016B000C8BF704700F1C040D8BF00F0004070477D
:1016C00000F5000C5FEA4C0C48BF7047B0F1C04019
:1016D00000F073B890EA010F0CEAD11348BF42F44E
:1016E0008072624538BF634504D280EA010000F091
:1016F0000040704710B500F01AF800BF8900013EA5
:1017000000F007B800F009B85FEA410C5FEA1C6C12
:1017100008D080EA010000F050B85FEA400C5FEAB0
:101720001C6CF6D14FF00040A0F5800070470EF120
:10173000020E2EF0030E5EF8044B244204D44FEA4E
:101740004102B2F17F4F11D84FEA4003B3F17F4F0E
:101750000CD80ED14FEAD07CB2F17F4F0CEB4C0C81
:101760000CF1020C08BF4CEBD17C04E04FF0080CEC
:1017700001E04FEAD17C0CEB4C0324FA03F404F0B3
:101780000704B4F1040C06D20EEB840CBDE8104043
:101790004CF0010C6047DFE80CF0070802024FF044
:1017A0000040A0F5800010BD0846420018BFD2F1ED
:1017B000807288BF00F0004010BDFF2141EAD05088
:1017C000C005704780F0004090EA010F7FF59FAEA2
:1017D00081F0004100F007B890EA010F48BF81F0A6
:1017E00000413FF594AE421A04D882F00042A0EBCB
:1017F000020011444FEAD0524FF07F4C1CEA410FD7
:10180000A2EBD15318BF9CEA026F4AD04FF0004CB4
:101810004CEA00204CEA012121FA03FCB0EB0C0C4D
:101820000FD412F0FE0F36D05FEA4C001DD5001227
:1018300040EBC25038BF70471CF03F0F18BF7047D5
:101840000BE0A2F101025FEA1C2040EBC25038BF5E
:1018500070471CF07F0F18BF7047C3F120039940F9
:1018600014BF401E20F00100704780084FEA122389
:1018700008BF7047B0FA80FCA2EB0C02CCF1280C38
:1018800060FA0CF093EA122F04BF00EBC2507047CD
:101890004FEAC3707047130A5FEADC1008BF704755
:1018A000F6E79CEA026F04D010EA5C0F08BF002044
:1018B000704710B5FFF73BFF40DFF63E81F0004078
:1018C00070470000E4180000000000200400000041
:1018D000A8020000E81800000400002064040000D2
:0818E000C402000080F0FA02CE
:0400000500000311E3
:00000001FF
